:020000040800F2
:1000000030080020B9010008874C00082746000886
:10001000854C0008A9270008A15300080000000033
:10002000000000000000000000000000D54E0008A5
:10003000AB27000800000000894C0008D74E0008DC
:10004000D3010008D3010008D3010008D301000840
:10005000D3010008D3010008D3010008D301000830
:10006000D3010008D3010008D3010008D301000820
:10007000D3010008D3010008D3010008D301000810
:10008000D3010008D3010008D3010008D301000800
:10009000D3010008D3010008D3010008D3010008F0
:1000A000D3010008D3010008D3010008D3010008E0
:1000B000554F0008D3010008D3010008D301000800
:1000C000D3010008D3010008D3010008D3010008C0
:1000D000D301000895530008D3010008D30100089C
:1000E000D3010008D3010008D301000800F002F892
:1000F00000F053F80AA090E8000C82448344AAF16F
:100100000107DA4501D100F048F8AFF2090EBAE86C
:100110000F0013F0010F18BFFB1A43F0010318473B
:10012000D0710000F0710000103A24BF78C878C187
:10013000FAD8520724BF30C830C144BF04680C60ED
:10014000704700000023002400250026103A28BF35
:1001500078C1FBD8520728BF30C148BF0B60704739
:10016000662906F0FF85642900F08480732900F079
:100170006485002070471FB501F024F804000020BA
:10018000002105F087FD401C60600020002105F083
:100190006BFDE0601FBD10B510BD01F0D9FA11462E
:1001A000FFF7E9FF05F038FC01F02AFD03B4FFF783
:1001B000F2FF03BC01F082FD09488047094800476F
:1001C000FEE7FEE7FEE7FEE7FEE7FEE7FEE7FEE707
:1001D000FEE7FEE704480549054A064B7047000064
:1001E000534F0008ED0000083002002030080020C6
:1001F00030040020300400200FB41CB5074B06AAC1
:100200007B4469460090059800F0EDFC00206946AB
:1002100000F0FCFC1CBC5DF814FB0000090A0000A7
:1002200070B50C460546012A05D02878800600D511
:10023000EA69002302E0012305E05B1C934202D23D
:10024000E05C0028F9D1A869E618C01AA861286AFC
:10025000184428622846AFF3008004E0D5E9012164
:1002600014F8010B9047B442F8D32846AFF300804E
:1002700070BD00002DE9F041064600241068752984
:10028000314616A510D0AFF30080002802DA4042B4
:1002900013A507E031688A0701D512A502E04907D6
:1002A00004D511A5012401E0AFF3008000210A224A
:1002B00006F1240709E0B0FBF2FCB0FBF2F302FB0D
:1002C0001C00303078541846491C0028F3D12346CE
:1002D0002A463046BDE8F04100F017BA00000000A1
:1002E0002D0000002B000000200000002DE9F04749
:1002F0004FF0000A89460446C0F820A02046E16875
:100300008847002876D0252806D0D4E901219047D7
:10031000206A401C2062F1E7E168204600258847FA
:10032000C4F81CA006460027C4F818A02A2E09D03D
:10033000304605F056F938B304EB8708303EC8F86C
:10034000186019E059F8041B204604EB87029161FC
:10035000E1688847012F064618D1E069002820DAB5
:1003600025F020051DE0D8F8180000EB800006EB12
:1003700040003038C8F818002046E1688847064633
:1003800005F02FF90028EED1012F0AD02E2E08D12A
:100390002046E16888477F1C0646022F45F020056D
:1003A000C4DBA069002803DA404245F00105A061E2
:1003B000E80701D025F01005B6B1A6F141001928D3
:1003C00002D8203645F400654A463146204625606D
:1003D0004D46FFF7C5FE58B1012806D0ED1D25F0AA
:1003E000070000F1080989E704E005F1040985E741
:1003F00030468AE7206ABDE8F08700000FB400B5F8
:100400008DB010A9099000910B904FF0FF300A9029
:1004100000200C90064878440690064878446A46C6
:1004200007900F9909A800F09DFE0DB05DF814FB30
:100430006B0D0000830D00002DE9FF5F1D464FF09E
:10044000FF3B91464FF000085F46D5E90146A96998
:1004500001987F1C8847296A824688470028F6D180
:10046000BAF1FF3F0CD0002E24F4C06419DD600601
:1004700014D5BAF12B0F09D0BAF12D0F0ED103E02C
:10048000584604B0BDE8F09F44F48064A96901981F
:100490007F1C8847761E8246002E02DDBAF1300F9F
:1004A00003D0B9F1000F26D032E0A969761E019879
:1004B0007F1C44F400748847002E824605DDBAF1A3
:1004C000780F06D0BAF1580F03D0B9F1000F10D051
:1004D0001EE0B9F1000F02D0B9F1100F18D1A969CF
:1004E000761E01987F1C24F40074884782461020F1
:1004F00002E0082000E00A20814609E0A96908FB23
:100500000908761E01987F1C44F4007488478246CF
:10051000002E05DD4946504600F093FB0028EDDA39
:10052000E96901988847A00502D46FF00100A8E7A7
:10053000E00725D1600613D5600502D5C8F100009B
:1005400000E0404629680A1D2A600968220501D595
:10055000087015E0220701D5088011E008600FE05F
:100560002868011D29600068210502D580F80080F7
:1005700006E0210702D5A0F8008001E0C0F8008065
:1005800038467EE740EA0103024630B59B0710D1AA
:100590004FF0013400E008C208C91D1B9D4315EA55
:1005A000C41FF8D013F0FF0102F8011B0DD01B0A85
:1005B000F8E711F8013B002B02F8013B05D011F8D8
:1005C000013B002B02F8013BF3D130BD10B5431CB9
:1005D00002E010F8011B71B18107FAD14FF001322E
:1005E00002C88C1A8C4314EAC211F9D0C01A0A0648
:1005F00003D0C01E10BDC01A10BD0A0401D0801E59
:1006000010BD0902FCD0401E10BD40EA010370B5C8
:100610009B072ED14FF00136042A2AD308C810C9EF
:100620009D1B9D43121F15EAC61517D0D8B2E1B223
:10063000401A50EA056110D198B2A1B2401A50EAAE
:1006400005410AD123F07F4024F07F41401A50EA4F
:10065000052102D1180EA0EB146070BDA342DBD0BF
:1006600018BA21BA884201D9012070BD4FF0FF307D
:1006700070BD0AB9002070BD10F8013B11F8014BA4
:1006800063B1A3420AD1521E08D010F8013B11F801
:10069000014B1BB1A34201D1521EEDD1181B70BDFD
:1006A0004FF0000200B5134694469646203922BF0B
:1006B000A0E80C50A0E80C50B1F12001BFF4F7AF56
:1006C000090728BFA0E80C5048BF0CC05DF804EB38
:1006D000890028BF40F8042B08BF704748BF20F8A6
:1006E000022B11F0804F18BF00F8012B70477047A4
:1006F0007047704710B500F069FD006810BD10B577
:10070000044600F063FD046010BD2DE9F0470D467E
:1007100099469246044600F124080168880604D5EB
:10072000E06921F01001216000E00120A84201DD14
:10073000471B00E00027A1697A1902EB0900081A9B
:10074000A0612078C00602D42046AFF300800026C6
:1007500008E0D4E901211AF806009047206A401CFD
:10076000761C20624E45F4DB2078C0060AD5204670
:10077000AFF3008006E0D4E9012130209047206AE1
:10078000401C2062381EA7F10107F4DC07E0D4E921
:10079000012118F805009047206A401C2062281E9D
:1007A000A5F10105F3DC2046AFF3008020780006B8
:1007B00002D50220BDE8F0870120FBE770472DE954
:1007C000FF4F0C461E464FF0FF378BB0D2E90001B9
:1007D000DDF860800A908A46C1F30A5505B93D46A6
:1007E000002108464FF00000BAF1000F00F440006D
:1007F00005DA00EB80004FF4400101EA50004FEAB7
:100800009059B9F1010F00DDB9460A9850EA4A0043
:100810000ED044F61050A5F2FF3545432F14B8F121
:10082000000F1ED07542291E1EDDC9F100021CE01A
:10083000B8F1010F4FF0000001D0302103E0F24386
:1008400005E02154401CB042FBDB30460022002171
:1008500021540B99C1F80880C1E900200FB0BDE810
:10086000F08FBD1B6D1CDEE74A4600DA694206A820
:1008700000F0F8FE06AB93E8070003AB83E807003F
:1008800050460A9901F021FA8DE80700A0F50050C2
:100890001F3800900398002D0ADD42F21F014A46DE
:1008A0000844002303A90390684601F0CDFC09E049
:1008B000A0F500504A461F38002303A9039068465C
:1008C00001F0ECFC8DE807000004000C03D04FF0B1
:1008D000FF30410800E01046B8F1000F03D00022BD
:1008E000009215461EE0751E05D400F073FC3032F0
:1008F00062556D1EF9D5B3460122084302D000228D
:100900007F1C04E02078302801D100227F1E002ABD
:10091000099784D01DE0112D07DA00F05BFC30321E
:1009200062556D1C50EA0102F5D1084302D00098CF
:10093000C8B10EE00021681E05E0235C625C6354D0
:100940002254401E491C8142F7DBAB46A81B401EC7
:100950000990002004F80B000B98099AC0F8088051
:10096000C0E9002B7AE711264FF0000857E72DE980
:10097000F04F88460446D21D22F0070191B0D1E91C
:100980000001CDE90A0104F021FD02460B98C00FD9
:1009900001D02D2007E02068810701D52B2002E03F
:1009A000202101EAC000032A099001D0072A05DBB3
:1009B00003464146204600F05BFC0BE120788006B0
:1009C00001D5E06900E00620B8F1650F814606D048
:1009D000B8F1660F18D0B8F1670F70D131E0002080
:1009E000B9F1110F009001DB112301E009F10103BE
:1009F0000AAA01A90CA8FFF7E2FEDDE90C700026A7
:100A000009F10105834647E001204B4600904FF075
:100A100000470AAA01A90CA8FFF7D1FEDDE90DB035
:100A20000C995D46002610B909F101000D18B9EBCB
:100A3000050003D4C0F1FF3609F10105A5EB09005B
:100A40002BE0B9F1010F01DA4FF001090020B9F1F3
:100A5000110F0090484601DD112300E003460AAA69
:100A600001A90CA8FFF7ABFEDDE90C704D4600268E
:100A70008346207800070AD4AB4500DA5D4601A81A
:100A8000012D04DD411911F8011C302907D04F4513
:100A900002DA17F1040F04DA012082460FE06D1E1E
:100AA000EEE7002F02DCED1B3E4403E0781CA84279
:100AB00000DD7D1CB81B00F1010A4FF000472078D3
:100AC000000703D4AA4501DB4FF0FF3A0021B7F13C
:100AD000004F0DF143088DF8431024D002202B2342
:100AE000002F01DA7F422D230A21021EA0F101000E
:100AF00000DC5FB197FBF1FC97FBF1F201FB1C7C82
:100B000017460CF1300C08F801CDEEE7A8F1010012
:100B100003702188090501D5452100E06521A0F178
:100B2000010800F8011C09980FA9A1EB0807FF1D97
:100B300000B10120411901EBEA70A1693844081A9B
:100B4000401EA0612078C00602D42046AFF300808A
:100B5000099828B1D4E901219047206A401C2062FD
:100B60002078C00622D52046AFF300801EE0002E7C
:100B700004DBB34502DD01A8805D00E03020D4E94C
:100B800001219047206A401C2062761CAAF10100D6
:100B90005FEA000A0AD100F015FBC0680168405CFA
:100BA000D4E901219047206A401C2062281EA5F14B
:100BB0000105DCDC07E0D4E9012118F8010B9047BE
:100BC000206A401C2062381EA7F10107F3DC204692
:100BD000AFF30080032011B041E6000001694A1C18
:100BE00002610878704700B58FB0CDE9013100216E
:100BF000059105497944CDE9031011466846FFF790
:100C000075FB0FB000BD0000E5FFFFFF0A6802F8AA
:100C1000010B0A60704710B5436913B1AFF3008050
:100C200001E0FFF7FDFA012010BD127800F1240168
:100C30000A7000224A700122EDE711684FF0FF327E
:100C4000E9E73A2800D2303820F02002412A01D3C7
:100C5000A2F13700884201D34FF0FF307047000007
:100C60002DE9FF4F06468BB00878FF2806D0491CB7
:100C70002D2805D000244FF0000908E000200CE0EA
:100C80000124F8E709EB8903491C00EB43090878C4
:100C9000FF28F7D114B1C9F1000081461078002572
:100CA0002C46AA4629462D2801D02B2804D1521CB7
:100CB0002D2813D0002082468B461078FF280FD0B5
:100CC0004FF0000C0A21521CA5FB017804FB0181A6
:100CD00005FB0C11C5194BEB0104EEE70120EAE717
:100CE000002108464FF00000BAF1000F02D000EBDF
:100CF00080004008C0F38157012F01DD4FF0FF371E
:100D00000E9955EA040009EB01080BD04FF00209D7
:100D100018F5FA7F16DA4FEACA70002F706008DD06
:100D2000012007E04FEACA70C6E900B00FB0BDE885
:100D3000F08F0020306000F049FAC0F800901821D0
:100D4000084616E0B8F5FA7F18DD002F02DAF748FA
:100D5000784401E0F6487844D0E90010C6E9001074
:100D600040EACA70706000F031FAC0F800901421B7
:100D700008460FB0BDE8F04F05F0F1BF002108466E
:100D80004FF00000B8F10001099002DAC7F100024B
:100D900000E03A4601DAC8F1000106A800F062FC62
:100DA00006AB93E8070003AB83E8070044F23E007C
:100DB0005BEA04010090584604D144F21E012C461F
:100DC0005D460091210C0904014306D100992404D9
:100DD00044EA15442D041039009104F07F41014389
:100DE00006D10099240244EA15642D0208390091C5
:100DF00004F07041014306D10099240144EA1574BE
:100E00002D01091F009104F04041014306D10099D2
:100E1000A40044EA9574AD00891E009104F00041DD
:100E2000084304D100986D196441401E00904FF0B2
:100E300001033A466846B8F1000FCDE9014503A920
:100E400002DD01F040FA01E001F013FABAF1000FFF
:100E500004460D4601D084F00044002108464FF0BE
:100E60000000099940F2FF77484010F00C0F07D1BD
:100E700024F00040284303D0C4F30A50B84212D1F2
:100E800000F0A4F9C0F80090C4F30A50B8420AD1A7
:100E9000A8487844D0E90010C6E9001004F00041E9
:100EA0000843706042E7C6E900543FE72DE9FF4F71
:100EB0001F464FF0000A4FF0FF38454691B0D7E982
:100EC0000146CDF83CA000F07DF9C0680168405CA7
:100ED0001090B96912986D1C8847396A8146884715
:100EE0000028F6D1B9F1FF3F0AD0002E24F4D064D7
:100EF00011DDB9F12B0F08D0B9F12D0F0BD102E0A4
:100F0000404615B013E744F48064B96912986D1C2B
:100F10008847761E8146600504A901D52D2000E092
:100F20002B20002E01F1010B0DF130088DF810007F
:100F30003FDDB9F1690F08D0B9F1490F05D0B9F11A
:100F40006E0F02D0B9F14E0F1CD13B4601A800959F
:100F500080E85002DDE912126FF0020005F068FF30
:100F6000C11CCED10EE0B96912986D1C884781462C
:100F70001398761E44F4007405600F98401C002EF0
:100F80000F9016DDB9F1300FEDD0B9F1780F02D026
:100F9000B9F1580F0DD10F9801280AD13B46CDE980
:100FA0000054DDE91212001F029605F03FFFC11C3C
:100FB000A7D1109989453ED144F0800406E01399E9
:100FC000681CAAF1010A44F400740860B9696D1C38
:100FD0001298761E884730288146F0D02BE0109971
:100FE000894505D1200603D4761E44F0800418E01C
:100FF000484604F0F6FA08B3761E0DF123018B453E
:1010000044F4007408D2A9F130000BF8010B20065B
:1010100007D5AAF1010003E0200602D40AF101007D
:101020008246A00502D51399681C0860B969129818
:101030006D1C88478146002ED1DC53E0002E51DD27
:10104000B9F1650F02D0B9F1450F4BD1A00549D5D3
:10105000B9696D1C1298761E24F440748847002EDE
:1010600081460CDD2B2804D0B9F12D0F07D144F4B3
:101070008074B96912986D1C8847761E8146E00518
:1010800001D52D2100E02B2108F8011BCDF80080AF
:1010900021E0761E0DF13901884544F400740CD22C
:1010A000A9F1300010F0FF0088F8000002D100998B
:1010B000884509D908F1010806E0E00501D51E4878
:1010C00001E042F20F708246B96912986D1C8847A0
:1010D000814613980560002E04DD484604F081FA2D
:1010E0000028D6D1F96912988847FF2053468BF81B
:1010F000000088F8000000200A900B9004AA0CA9B8
:101100000AA8FFF7ADFDA00502D46FF00100F8E6D4
:1011100014F0240F12D0E0071CD13868DDE90A1260
:10112000031D3B600068C0E9001213E0C4650000C5
:10113000B66500007A640000F1D8FFFF0AA968468E
:1011400004F0DEF9E00705D13868009A011D396026
:10115000006802602846D4E60268114413780160F2
:1011600018467047D1600549794451610449794472
:10117000116200211161114600F0BAB8EDFFFFFFC6
:10118000ED000000426842B1016811F8013B23B153
:10119000521EC0E90012184670470121C160881E26
:1011A000704742685AB1C368016843B983688B428B
:1011B00005D0491E521CC0E90012002070474FF0B4
:1011C000FF30704700487047F0010020004870472A
:1011D000D001002030B5B0F10A024FEA900E71F153
:1011E00000034EEA817EB0EB0E0061EB91014FEA05
:1011F000101E4EEA017E10EB0E0041EB11114FEA7A
:10120000102E4EEA016E10EB0E0041EB11214FEA59
:10121000104E4EEA014E10EB0E0041EB114140180A
:1012200041F100014FEAD00040EA41704FEAD1019C
:1012300010EB80054FEA810444EA907444EB01040A
:101240006D1944EB0404521BA3414FF0000348BF47
:101250000A3200D530BD401C41F1000130BD10B54F
:10126000044600F09BFA0068005D00F0010010BD2C
:101270002DE9F0411F46044603260168072A01F4C0
:10128000006004DB08B116A505E016A503E008B16F
:1012900015A500E015A521F010002060A069C01E72
:1012A000A0610FB1401EA0612046AFF300804FB196
:1012B000D4E9012138469047206A401C2062C01CB6
:1012C000206206E0206AFAE7D4E9012115F8010B53
:1012D0009047761EF8D22046AFF30080BDE8F0813B
:1012E0004E414E006E616E00494E4600696E6600CA
:1012F0002DE9F34F4FF0000A0C4656468DB0012001
:101300000C9001F10C000B9062690B980121904741
:10131000051E2DD0252D2CD0216A8847C0B16269C9
:101320000B9801219047216A88470028F7D162690C
:10133000411E0B98904700E0761CA1690D988847E4
:10134000216A88470028F7D1E1690D988847DBE7D3
:10135000A1690D988847A842074601D1761CD3E7BA
:10136000E1690D9888477F1C02D1BAF1000F6FD058
:101370006BE162690B9800273D46394690472A2861
:1013800004D162690B98012190470125DFF8D082D2
:1013900062690B9801219047A0F130010A290AD215
:1013A0004745E5DC07EB870100EB4107303FDFD421
:1013B00045F01005ECE7E90601D46FF000476C2812
:1013C0000AD04C2814D0682815D06A280DD074286B
:1013D0001CD07A281AD01DE062690B980121904731
:1013E0006C2802D045F0040514E045F002050DE03C
:1013F00045F020050AE062690B98012190476828B2
:1014000002D045F0080505E045F4006562690B98D7
:1014100001219047C4E9015765283DD019DC5828BF
:101420007AD00CDC452837D004DC252826D041288A
:101430009ED131E046282FD0472899D12CE05B2857
:1014400077D0612828D063287CD0642823D15AE043
:10145000F6E06F2848D008DC66281DD067281BD02E
:10146000692821D06E2816D127E0702845D073282E
:1014700068D0752847D078280DD14DE0A1690D9826
:101480008847252805463FF469AFE1690D988847EC
:101490006D1C3FF46AAFD8E00D9923466A466FF0A1
:1014A000010005F0C1FCC5E045F0400023464FF0C7
:1014B00000026060A80736D43EE0E8077FF447AF3B
:1014C0002068011D21600068290501D506701BE711
:1014D000290701D5068017E7A90703D5F117C0E949
:1014E000006111E706600FE745F0400023464FF02A
:1014F00008026060A80716D41EE040F60E0125EA37
:101500000100606016E045F0400023464FF00A02FB
:101510006060A80707D40FE045F040006060A807AE
:1015200008D5234610220D996FF00100AFF300801B
:1015300080E007E0102223460D996FF00100FEF7CE
:101540007BFF77E04FF0000963284F46C8464B46C3
:10155000CB4602D05B2806D038E0E80601D4012053
:10156000A060012732E06269D4F80CB00B98012129
:1015700090475E2807D14FF0010949466269D4F8C7
:101580000CB00B989047216939B900210A4603AB8A
:1015900043F82120491C0829FADBD8B3216949B353
:1015A00008F1010862690B98012190475D28F4D188
:1015B000B9F1000F09D0002003A951F82020D2432F
:1015C00041F82020401C0828F7DB03AB20690028E5
:1015D00020794FEA40701ED05B462246CDF800804D
:1015E000CDE901970D9900286FF0010020DAAFF3E3
:1015F00000801FE0C11703AA00EBD1614B1121F05D
:101600001F0102EB8302411A136801208840034343
:101610001360C7E719E00D99224600286FF001001A
:10162000009702DAAFF3008004E0AFF3008001E03E
:10163000AFF3008000280ADA401C06D10C9820B1D4
:101640004FF0FF300FB0BDE8F08F5046FAE7E907E2
:1016500001D10AF1010A064400200C9054E6000072
:10166000CCCCCC0C2DE9F047814616468AB03548E3
:1016700078440DC88DE80D0032487844801C03ACD6
:101680000DC884E80D0041F69B300844372190FBDB
:10169000F1F290FBF1F5A5F1800501FB12041B3C72
:1016A00002D56442012000E00020DFF898A08046C7
:1016B0000027FA44AAF1BE0A0EE0E0070AD032463B
:1016C000684607EB470101230AEB810100F0E6FDC4
:1016D0008DE8070064107F1C002CEED1194F7F4469
:1016E000AE3F19E0E80715D007EB04100DF1180A1A
:1016F00090E80E008AE80E00C068F04201D1981907
:1017000008903246012306A903A800F0C7FD03ABE9
:1017100083E807006D10641C002DE3D14FF0010336
:1017200032466946B8F1000F03A802D000F08CFDE4
:1017300001E000F0B3FDC9E90001C9F808200AB0D2
:10174000BDE8F087B05A000000487047D001002083
:101750007546FFF7F9FFAE4605006946534620F08F
:101760000700854618B020B5FEF734FDBDE82040DF
:101770004FF000064FF000074FF000084FF0000B4D
:1017800021F00701AC46ACE8C009ACE8C009ACE800
:10179000C009ACE8C0098D467047000010B5FFF7DE
:1017A00011FD001D10BD00BFED4400002DE9FF4FED
:1017B0001F464FF03C0987B04FF00042DDE914109E
:1017C00001F10108DDF858A002EA40500390002022
:1017D00005908346054604460490B969461E08985C
:1017E0008847AAF1010A0290BAF1000F3BDD029886
:1017F0002E2815D01021FFF724FA00282EDB4FF0F9
:10180000010B0599014317D0B9F1000F0BDB4A46D4
:10181000C11700F03FFA05430C43A9F1040905E0A4
:10182000012004900BE008B145F00105012005906E
:10183000049820B9361D02E0049800B1361FB9693A
:10184000089808F101088847BBF1000FAAF1010AC6
:101850000290C9D00999C1F80080C5E702987028A4
:1018600008D0502806D0F96908988847BBF1000FC6
:1018700014D04FE0002002900120BBF1000F049033
:1018800009D0B969089808F101088847AAF1010947
:10189000B9F1000F07DCF969089888476FF001007B
:1018A0000BB0BDE8F08F2B2804D02D280CD14FF0C1
:1018B000FF300490B969089808F101088847A9F138
:1018C0000109B9F1000FE6DD411CE4D00A21FFF760
:1018D000B8F90028DFDB029908F1010801EB81016A
:1018E00000EB41000290B969089888470A21FFF788
:1018F000A8F9099AA9F10109B9F1000FC2F800800D
:1019000001DD0028E7DAF969089888470499029808
:1019100000FB016655EA040004D004F040410900D0
:1019200002D006E0039898E0A40044EA9574AD0064
:10193000B61E04F00041080002D16D196441761E04
:10194000159810F0240F03D04FF00B095C4803E00A
:101950004FF028096FF07D008246564507DAAAEB62
:1019600006018944B9F1410F01DD4FF04109012021
:101970000021A9F1010200F08DF9024628400B4632
:101980002140084301D0012100E00021501E0291B6
:1019900043F1FF3128402140084301D0012000E0FD
:1019A00000200299834651EA0B014FD000210846DE
:1019B0004FF00000039900F4400039B100EB8000C3
:1019C0004FF4400100EBD07001EA6000801501285F
:1019D00002DD4FF0FF3000E013D0401C36D00298FB
:1019E00060B3BBF1000F0CD14A460120002100F08A
:1019F00051F928402140084301D0012000E0002097
:101A0000E0B101204A46002100F044F903464019A4
:101A10000A4661412D1A8C4111D3B9F1400F09DDFD
:101A2000159810F0240F02D0AAF1340603E0AAF1B1
:101A3000170600E0761C00254FF0004406E05B1E10
:101A400042F1FF3220EA030521EA0204CAF1010053
:101A5000B04206DA1B490398084301900020009029
:101A60000EE0039AC4F3D321E80A0A43164940EA78
:101A700044500A433146CDE90002684603F0A6FD12
:101A8000159810F0240F0BD01598C00715D13868A1
:101A9000DDE90012031D3B600068C0E900120CE0A4
:101AA00002A8694603F02CFD1598C00705D13868D7
:101AB000029A011D3960006802604046F0E60000AD
:101AC00002FCFFFF0000F07F0000F03F2DE9FF4F18
:101AD00092461D4685B04FF00041DDE9124BDDE92D
:101AE00014727F1E01EA4B50414940F0FF4940EA21
:101AF0000108002122F020004928049102D04E283C
:101B000028D04CE03BA0012607C88DE80700A96952
:101B10000698641C88477F1E014606D41DF80600FF
:101B200018B121F0200181420BD0E969069888475D
:101B3000032E34D0082E32D06FF0010009B0BDE87A
:101B4000F08F761C032E01D0082EE0D1601CCAF85D
:101B50000000DCE7A9690698641C88477F1E2AD428
:101B600020F02000412826D1A9690698641C8847E6
:101B70007F1E20D420F020004E281CD1A969069891
:101B8000641C88477F1E48F4002849F48009CAF87D
:101B9000004001D4282806D0E969069888475FEA02
:101BA000CB7012D022E0A9690698641C88477F1E7A
:101BB00001D4002803DAE96906988847BCE7292898
:101BC000F1D1641CCAF80040E9E71BF0240F07D0EC
:101BD00028680499031D2B600068C0E9001805E01F
:101BE0002868021D2A600068C0F800902046A5E71A
:101BF0000000F07F494E46494E495459000000000C
:101C000010B50446AFF300802046BDE81040FEF753
:101C1000CDBA00004FF0013C50F8042B51F8043BC2
:101C20009A4221D1A2EB0C03934313EACC1317D1B0
:101C300050F8042B51F8043B9A4215D1A2EB0C0347
:101C4000934313EACC130BD150F8042B51F8043B07
:101C50009A4209D1A2EB0C03934313EACC13DBD0D5
:101C60004FF00000704700BFD01A01BAB1FA81F1FD
:101C700001F0180122FA01F0CB40C1F12001DBB2E2
:101C8000C0B2C01A2CFA01F3D11A914311EAC31160
:101C9000E6D17047B2F120030AD5C2F1200301FA60
:101CA00002F120FA03F300FA02F041EA030170475F
:101CB00000FA03F14FF000007047000001491820BE
:101CC000ABBEFEE72600020070475FEA400C08BF8B
:101CD00091F0000F4FEA8C234FEAC12243EA5151A1
:101CE0004FEA1C5018BF00F5F0404FEA300018BF13
:101CF00041F000415FEA6C5C00F02980BCF1FF3FDD
:101D000008BF40F080407047130C06BF12044FF02C
:101D1000100C4FF0000C130E04BF12020CF1080C53
:101D2000130F04BF12010CF1040C930F04BF9200B7
:101D30000CF1020CD30F04BF52000CF1010C114640
:101D40004FF00002A0F11F00A0EB0C00704711F053
:101D5000004F08BF704731F000413FF4D5AF0B0C86
:101D600006BF09044FF0100C4FF0000C0B0E04BF1F
:101D700009020CF1080C0B0F04BF09010CF1040C53
:101D80008B0F04BF89000CF1020CCB0F04BF49007C
:101D90000CF1010CCCF12003A0EB0C0022FA03F3B0
:101DA00002FA0CF241EA030100F10100704720F051
:101DB0007F4C80EA030023F07F47ACEB070303F579
:101DC0007C5300F0004003F1FF032DE980494FEA06
:101DD000154B09B44FEA144325EA0B4E24EA034895
:101DE0000FF2042606EB132749083E785FEA320219
:101DF00003FB0667C7F5000707FB06F64FEA5437F3
:101E00004FEAD64606F1020607FB066CCCF1005CF1
:101E10004FEA1C472CEA074C07FB06F40CFB06F5BF
:101E200004EB15464FEA961634BF00204FF00040F1
:101E30004FEAD13706FB07FC4FEA1C4C0CFB0BF7B3
:101E4000D21B03FB0CF761EB07010CFB0EF7B0EBA9
:101E5000074072EB17420CFB08F734BFA2EB0742B6
:101E6000B2EB074261EB17414FEA0C444FEA91078E
:101E700006FB07FC4FEA1C4C0CFB0BF7B0EBC74012
:101E800072EB573203FB0CF734BFA2EBC742B2EB45
:101E9000C74261EB57310CFB0EF7B0EBC70072EB9A
:101EA00057720CFB08F734BFA2EBC702B2EBC702B4
:101EB00061EB5771039F4FEA816141EA921104EB94
:101EC000CC044FEAD1374FEA826206FB07FC42EAB4
:101ED00090124FEA80604FEA1C4C0CFB0BF7D21BB0
:101EE00003FB0CF761EB07010CFB0EF7B0EB0740AF
:101EF00072EB17420CFB08F734BFA2EB0742B2EBC0
:101F0000074261EB17414FEA8C554FEA910704EB0A
:101F10009C2406FB07FC4FEA1C4C0CFB0BF7B0EBB8
:101F2000C74072EB573203FB0CF734BFA2EBC7423A
:101F3000B2EBC74261EB57310CFB0EF7B0EBC700B9
:101F400072EB57720CFB08F734BFA2EBC702B2EB7F
:101F5000C70261EB577115EB4C254FEA816141EAED
:101F600092114FEA82624FEAD13742EA901206FBA1
:101F700007FC44F100044FEA80604FEA1C4C0CFB64
:101F80000BF7D21B03FB0CF761EB07010CFB0EF701
:101F9000B0EB074072EB17420CFB08F734BFA2EB23
:101FA0000742B2EB074261EB174115EB1C154FEAF4
:101FB000813141EA92414FEA823242EA90424FEA4D
:101FC00080304FEA0C7644F1000448EA03434EEABD
:101FD0000B484FF0000EB2EB080C71EB030724BF67
:101FE000624639464EEB0E0E4FF0000B0018524180
:101FF00049414BEB0B0BB2EB080C71EB03077BF188
:10200000000B24BF624639464EEB0E0E4FF0000B1C
:102010000018524149414BEB0B0BB2EB080C71EB32
:1020200003077BF1000B24BF624639464EEB0E0ED0
:1020300051EA020718BF46F0010616EB0E7655F17D
:10204000000254F1000103D5BDE88901BDE8008814
:10205000BDE88901BDE80048B619524141EB0101D4
:10206000A3F10103704780807F7E7D7C7B7A797845
:10207000777676757473727171706F6E6E6D6C6C4D
:102080006B6A6A69686867666665646463636261EF
:102090006160605F5F5E5E5D5D5C5C5B5B5A5A5970
:1020A00059585857575656555555545453535252DC
:1020B0005251515050504F4F4F4E4E4D4D4D4C4C34
:1020C0004C4B4B4B4A4A4A4949494848484747477D
:1020D00047464646454545444444444343434342BA
:1020E000424242414141000046EA0646A3F5705390
:1020F0004FEA164646EA42564FEAD22242EA415297
:1021000010B54FEAD121A3F1010300F02FF820F020
:10211000004000F1020C00F0004701EB00501146B6
:10212000BCF5006F40EA070000D210BDBAF1000F05
:102130000AD01CB503B44FF004004FF004014FF077
:1021400000000FBCBDE810404FF00001BBF1010FD3
:10215000B9BF04484FF0FF310348002140EA0700AF
:1021600010BD00BFFFFFEF7F0000F07F002B9C46FB
:1021700030D477002BD01CB54FEA370703B44FF0AB
:1021800010004FF01001BAF1000F06D0BCF1000FA3
:10219000DCBF40F0080040F008014FF000000FBC29
:1021A000BDE810400BF1010BBBF1010F08BF5FEA66
:1021B000170722BF12F1010211F101014FF0004196
:1021C00043F1000300F0004043EA00007047F9D3F8
:1021D0005708D0E746EA064613F1400F4FEA164685
:1021E0001FDD13F1200FDFBF16430A460021203305
:1021F0005B42BED0C3F1200746EA064602FA07F763
:102200004FEA164646EA0706C3F1200722FA03F210
:1022100001FA07F721FA03F14FF0000342EA07023F
:10222000A7E746EA020646EA06464FEA164646EAA7
:102230000106BCBF46EA0646360C4FF000034FF0DD
:1022400000024FF0000194E72DE9804C9A46934636
:1022500070B491E8380007C831EA400C48BF34EA4E
:10226000430C03D5FFF7A3FDFFF780FFF0BCBDE8EB
:10227000008C2DE9804C9A46934670B491E8380062
:1022800007C831EA400C48BF34EA430C03D5FFF7D6
:102290008EFDFFF729FFF0BCBDE8008C2DE9804CD6
:1022A0009A46934670B491E8380007C810F0804F02
:1022B00008BF13F0804F03D100F01AF8FFF756FF64
:1022C000F0BCBDE8008C2DE9804C9A46934670B472
:1022D00091E8380007C810F0804F08BF13F0804F16
:1022E00003D100F005F8FFF7FFFEF0BCBDE8008C5D
:1022F00020F07F4780EA030023F07F4C07EB0C03BC
:10230000A3F57C5300F00040A3F1FE0392F0000F10
:1023100000F0B38095F0000F00F077802DE90149BF
:102320004FEA11404FEA144621EA004800FB06FC40
:1023300024EA064708FB06F607FB08F800FB07F748
:1023400018EB06484CEB164C4FEA124B18EB0748BB
:102350004FEA15464CEB174022EA0B4E0BFB06FCEE
:1023600025EA06470EFB06F607FB0EFE0BFB07F7FA
:102370001EEB064E4CEB164C4FF000061EEB074EC4
:102380004CEB174B18EB0B0840F1000018EB0E0B51
:1023900058EB000840F100008F1A4FF000013CBFDD
:1023A000C943661B14BFB5EB040C00213CBFC943F5
:1023B000F61B4FEA17444EEA8E0E27EA04454FEA11
:1023C0001C4704FB07622CEA074C05FB07F70CFBD4
:1023D00005F604FB0CFC16EB074642EB174216EB26
:1023E0000C4642EB1C421BEB060658EB0202414135
:1023F00046EA9E0601D5BDE80189B619524141EB76
:102400000101A3F10103BDE801894FEA14454FEA38
:10241000114724EA054621EA074C05FB07F406FBB1
:1024200007F70CFB06F105FB0CFC11EB074144EB35
:1024300017444FEA124711EB0C4144EB1C4422EACB
:10244000074C05FB07F206FB07F70CFB06F605FB3E
:102450000CFC16EB074642EB174216EB0C4642EB20
:102460001C456A1854F1000148BF7047B619524123
:1024700041EB0101A3F10103704795F0000F37D044
:102480004FEA11424FEA144721EA024624EA074C78
:1024900002FB07F106FB07F70CFB06F402FB0CFC42
:1024A00014EB074441EB17414FEA154714EB0C447A
:1024B00041EB1C4125EA074C02FB07F506FB07F739
:1024C0000CFB06F602FB0CFC16EB074645EB17452A
:1024D00016EB0C4645EB1C42121951F1000148BFA6
:1024E0007047B619524141EB0101A3F10103704756
:1024F0004FEA14454FEA114724EA054621EA074C02
:1025000005FB07F106FB07F70CFB06F24FF0000690
:1025100005FB0CFC12EB074241EB174112EB0C429E
:1025200051EB1C4148BF7047921841EB0101A3F1E8
:102530000103704770B5044600688168C943C90744
:1025400017D1816821F00101816000F0FBFC054694
:102550000AE000BF00F0F6FC401B022804D9206806
:102560008068C043C00706D020688068C043C007A9
:10257000F0D0002070BDA06A40F01000A062E06AB8
:1025800040F00100E062012070BD0000F8B50026B7
:102590000446009600688168C943C9072DD0816848
:1025A00041F001018160164816490068B0FBF1F066
:1025B00000E0401E00900028FBD100F0C3FC05465F
:1025C00016E000BF00F0BEFC401B022810D92068B6
:1025D0008068C043C0070BD0A06A40F01000A06222
:1025E000E06A40F00100E06284F824600120F8BD58
:1025F00020688068C043C007E4D10020F8BD000017
:102600002400002040420F00012000F033B80000F9
:102610002DE9F04F154C8346BBB0206A04F050F80A
:1026200081468A46E06904F04BF807468846A0696F
:1026300004F046F805460E46606904F041F8CDE91D
:10264000000102AB224683E8E007094908A8FDF72C
:10265000D3FD08A8FDF7BAFF82B24FF0FF3308A9F7
:10266000584601F08FFF3BB0BDE8F08F58000020C6
:102670003C71000810B5082811D200EBC0010848D1
:1026800000EB810421460748FDF77CFF054861699E
:102690004161A1698161E169C161216A016210BD85
:1026A0000C6F0008580000202DE9F0410C4601464F
:1026B0001E4615460448069FFDF764FF0248143085
:1026C00080E8F000BDE8F081580000200A4910B50C
:1026D0000022C1E900028A60CA600A6102F0E0F9E2
:1026E00004F082F9054904F085F802F057FBBDE8D3
:1026F000104002F0A1BB00003400002000007A442A
:1027000070B5244C206802F0CBF904F06DF9224D2D
:10271000294604F06FF86060206802F0C9F904F0FF
:102720004BF9294604F066F81C49A060884201DD97
:10273000022005E01A49884201D9012000E000206A
:102740002075206802F0C6F9294604F053F81549AF
:10275000E06004F04FF8216903F0DEFF206160685B
:1027600002F05CFB4FF07E552946A06802F024FB86
:10277000A06802F09DFA2946A06802F069FB02F009
:10278000DBFA04F0F9F8607502F050FB04F0F4F89D
:10279000A07570BD3400002000007A440AD7233CA5
:1027A0000AD723BC00006145FEE77047F8B5002456
:1027B000009490F824202546012A12D0012280F8A6
:1027C00024204A681F23072A0DD20668776B521E01
:1027D00002EB820293409F430B6893401F43776351
:1027E00019E00220F8BD06680D2A0AD2376BD21F05
:1027F00002EB820293409F430B6893401F43376371
:1028000009E0F76A0D3A02EB820293409F430B689E
:1028100093401F43F7620A68072306680A2A0AD30F
:10282000F7680A3A02EB420293409F438B68934059
:102830001F43F76008E0376902EB420293409F4371
:102840008B6893401F4337610A68102A01D0112A10
:1028500020D1124B02689A4217D193681B0219D4F7
:10286000936843F4000393600968102912D10C495E
:102870000C4A0968B1FBF2F101EB8101490000E06B
:10288000491E00910029FBD104E0816A41F020013A
:102890008162012480F824502046F8BD00240140C4
:1028A0002400002040420F000068C06C7047000008
:1028B0002DE9F0414FF0000704003D467ED0A06AAC
:1028C000002628B9E66284F82460204600F07EF8ED
:1028D0002046FFF72FFEA16AC90600D420B1A06AE6
:1028E00040F01000A06269E0A16A21F4885141F033
:1028F0000201A1626268E169237B0A4347EA43015E
:102900000A43A1684FF48077B94209D0012907D062
:102910005FF0000194F814C0BCF1010F02D00AE08E
:102920003946F7E7F3B1A36A43F02003A362E36AF1
:1029300043F00103E3622368D3F804C02CF4694C2C
:102940004CEA010CC3F804C021688B68DFF870C042
:1029500003EA0C0313438B60A168B9420BD0012931
:1029600009D00CE0DFF85CC0A3690CEB43330B43E8
:1029700043F40061DFE7218A0D05A5F58015216884
:10298000CB6A23F470032B43CB62216889680E4B1A
:102990001940914208D1E662A16A21F0020141F09A
:1029A0000101A162BDE8F081A06A20F0020040F0C0
:1029B0001000A062E06A40F00100E0620120F1E74F
:1029C000FDF7E1FF00E0FFFFFE0E1FFF00B585B041
:1029D0000021009101910291039100680E49884203
:1029E00018D10E48816941F400718161816901F457
:1029F00000710491816941F0040181618069694637
:102A000000F004000490012000900320019004488D
:102A100000F0A2F905B000BD002401400010024002
:102A2000000801402DE9F84300270D4604460097B1
:102A300000F088FA804620688168C90508D5A06A38
:102A400040F02000A06284F824700120BDE8F883E3
:102A50004168C90503D4C06A10F4700F2AD002205F
:102A600000F07CFE3B490968B1FBF0F62068036981
:102A700039490B424FEA61014FEAA1121FD1C368E5
:102A80004FEA611C13EA0C0F19D103690B4225D1DF
:102A9000C068104222D1142023E0681C0AD02DB156
:102AA00000F050FAA0EB0800A84203D920680068A3
:102AB000800725D5206800688007EED52DE00369E2
:102AC0000B4202D1C168114206D0026923490A4271
:102AD00006D1C068084203D1542002E0292000E05A
:102AE000FC204643009816E0681C11D02DB100F080
:102AF00029FAA0EB0800A8420AD90098B04207D2F0
:102B0000A06A40F00400A06284F8247003209DE7CE
:102B10000098401C0090B042E6D321686FF012008C
:102B20000860A06A40F40070A06220688068C0F36A
:102B3000424007280CD1207B50B9A06A20F4807055
:102B4000A062A06AC00403D4A06A40F00100A062A1
:102B500000207BE72400002024499224499224008D
:102B600070B5044690F8240001280DD0012084F8A7
:102B700024002046FFF70AFD02004FF0000005D0B8
:102B800084F82400104670BD022070BDA16A40F296
:102B90000123994341F48071A1621F4D23681F49AD
:102BA000AB4218D10E6816F4702F14D0A66A46F402
:102BB0008016A6620E68760505D5A66A26F400562C
:102BC00046F48056A662A66AF6040AD5E66A26F09E
:102BD0000606E66206E0A66A26F48016A6625E682D
:102BE000E9E7E06284F824006FF0020018602068D2
:102BF0008368C3F34243072B05D1A84208D1096873
:102C000011F4702F04D0816841F480118160B9E71C
:102C1000816841F4A001F9E7002801400424014043
:102C200010B5044690F82400012807D0012084F84C
:102C300024002046FFF77EFC10B107E0022010BD03
:102C4000A16A21F4885141F00101A162002184F8B8
:102C5000241010BD10B590F821100022022905D0D3
:102C60000421816380F82020012010BD01680B68D9
:102C700023F00E030B6001680B6823F001030B6067
:102C800090F84030C46B012101FA03F3636080F8CF
:102C9000211080F82020104610BD000010B590F8DB
:102CA00021100024022903D00421816301243DE086
:102CB00001680A6822F00E020A6001680A6822F0C0
:102CC00001020A601A4A0168914201D1012121E002
:102CD000174A1432914201D110211BE0144A2832C4
:102CE000914201D1891515E0114A3C32914201D13E
:102CF00089140FE00E4A5032914202D14FF48031D4
:102D000008E00B4A6432914202D14FF4801101E095
:102D10004FF08071064A083A5160012180F8211075
:102D2000002180F82010416B01B18847204610BD7A
:102D30000800024070B5044600F004F90546601C26
:102D400002D004480078044400F0FCF8401BA04284
:102D5000FAD370BD180000202DE9F84FDFF8B891C4
:102D60000024A9F1040B23460F2709F1040AABF153
:102D7000040EC9E00125A5402A40AA427DD1674E34
:102D8000D1F804C0ACEB0608B44532D014DCBCF179
:102D9000030F3AD009DCBCF1000F2AD0BCF1010FBF
:102DA0001CD0BCF1020F31D11DE0BCF1110F17D0C6
:102DB000BCF1120F2AD119E0B8F5881F19D006DC32
:102DC000B8F5803F15D0B8F5801F1FD111E0B8F5D8
:102DD000001F0ED0B8F5041F18D10AE0CB6815E02B
:102DE000CB681B1D12E0CB6808330FE0CB680C33B7
:102DF0000CE08B682BB1012B4FF0080303D0456129
:102E000004E0042302E0056100E00023FF2A01D86A
:102E1000064601E000F104064FEA840501D9A5F158
:102E20002005D6F8008007FA05FC28EA0C0803FA0A
:102E300005F548EA0508C6F800804D68ED0062D542
:102E4000374DAE6946F00106AE61AD6924F0030668
:102E500005F001050095334D06EB050CDCF8085034
:102E6000A607360F07FA06F825EA0805DFF8B88046
:102E7000404503D14FF0000817E044E0DFF8AC8094
:102E8000404502D14FF001080FE0DFF8A480404533
:102E900002D14FF0020808E0DFF89880404502D1E7
:102EA0004FF0030801E04FF0040808FA06F848EA7A
:102EB0000508CCF808804D68D9F80060ED024D4651
:102EC00001D5164300E096432E604D68DAF80060A5
:102ED000AD02554601D5164300E096432E604D687D
:102EE000DBF80060AD035D4601D5164300E0964374
:102EF0002E604D68DEF80060ED03754601D516437F
:102F000000E096432E60641C0D682A46E5407FF47D
:102F100031AFBDE8F88F0000080401400000111037
:102F2000001002400000014000080140000C014078
:102F300000100140001401400AB10161704709040A
:102F4000FBE700000148806870470000180000207F
:102F500070B5040025D094F83D00002520B984F810
:102F60003C50204600F034FB242084F83D002068CB
:102F7000016821F0010101602068016841F400410D
:102F800001602068016821F40041016000F044FD07
:102F90004D4A6168914201D84C4900E04C49884251
:102FA00001D2012070BD4B492368B0FBF1F15E688E
:102FB00026F03F060E435E606368934206D94FF4E5
:102FC000967359434FF47A73B1FBF3F12368491CAC
:102FD0001E6A26F03F06314319626168914210D89B
:102FE0004900401EB0FBF1F2521CC2F30B02042A4E
:102FF00001D2042022E0B0FBF1F0401CC0F30B0032
:103000001CE0A268F2B301EBC10303EB0116431EFF
:10301000B3FBF6F35B1C43F480431B0549D092B32A
:1030200001EBC10202EB0111401EB0FBF1F0401CAC
:10303000C0F30B0040F4804040F400402168CA69AE
:103040004CF6FF739A431043C861D4E9071001435B
:103050002068026822F0C00211430160D4E9030134
:1030600001432068826848F2FF339A43114381602C
:10307000D4E9050108432168CA6822F0FF02104321
:10308000C86001E00EE016E02068016841F001012F
:1030900001602564202084F83D00256384F83E50BB
:1030A000002070BD01EB4106431EB3FBF6F35B1C31
:1030B000B3E70120C2E701EB4101401EB0FBF1F094
:1030C000401CC0F30B00B7E7A086010080841E00FF
:1030D00000093D0040420F002DE9FF4F81B08946B5
:1030E0000446FFF72FFF054694F83D004FF0000817
:1030F00020287DD11923012250492046009501F056
:10310000A9FB002874D194F83C00012870D001205C
:1031100084F83C0020680168C90703D1016841F0C8
:10312000010101602068016821F400610160242030
:1031300084F83D00002626644148E0624FF0011B00
:1031400020272068016841F4807101600095002209
:1031500059462046049B01F07DFB50B12068006871
:10316000C00502D54FF400702064032005B0BDE80F
:10317000F08F216809F0FE000861FFF7E3FE216887
:10318000054648694969C0F34000C1F380214FF00A
:10319000A00A0FE0FFF7D6FE411B0498814200D839
:1031A00008B984F83DA0216848694969C0F3400026
:1031B000C1F3802194F83D20A02A02D008B900294B
:1031C000E8D084F83D7020684169C943890716D466
:1031D000016841F400710160206841698069192328
:1031E000012216492046009501F034FBB8B900E0F1
:1031F00021E084F83D7084F83C600020B6E7016867
:1032000041F40071016021686FF480604861192306
:1032100001220A492046009501F01CFB08B101205B
:10322000A4E7039808F1010880458AD384F83D702B
:1032300084F83C60F3E7022098E7000002001000E9
:103240000000FFFF2DE9FF4F83B00025DDE9107975
:103250009A4693460446DDF848800095FFF772FED3
:10326000064694F83D0020287CD119230122884984
:103270002046009601F0EEFA0028F5D194F83C00C3
:1032800001286FD0012084F83C0020680168C9073C
:1032900003D1016841F0010101602068016821F457
:1032A00000610160222084F83D00402084F83E0047
:1032B00025646762A4F82A90608D20857548E062D5
:1032C000CDE9008653465A462046049901F0C4F9D8
:1032D00000287CD1208DDFF8C091202768B101281B
:1032E00014D00228206801681ED041F4806101607A
:1032F0002068416980690090BCE02068416981696B
:103300000091016841F400710160B3E02068016838
:1033100021F48061016072B6206841698169009181
:10332000016841F400710AE041F40061016072B685
:103330002068416981690091016821F48061016020
:1033400062B697E0032865D801280CD002284346CE
:103350004FF000024946204600960BD001F07AFA61
:10336000A8BB0CE091E032464146204601F018FB34
:1033700068BB72E001F06EFA48BB72B633E02068B9
:10338000016821F48061016072B620680069616A99
:103390000870606A401C6062208D401E2085608D30
:1033A000401E60853D4846F2A8110068B0FBF1F070
:1033B000C0EBC00000EB80000090401E009007D0E2
:1033C00020684069C04340070DD50098F5E727E025
:1033D00044F8305F6773A573206940F020002061D6
:1033E00062B625731CE02068016841F40071016039
:1033F00020680069616A0870606A401C6062218D03
:10340000491E2185618D491E618562B62168096961
:10341000017026E032464146204601F0C1FA18B15B
:10342000012007B0BDE8F08F20680069616A08706C
:10343000606A401C6062208D401E81B22185608DD3
:10344000401E608520684269D243520712D4032986
:1034500003D1016821F48061016020680069616A1C
:103460000870606A401C6062208D401E2085608D5F
:10347000401E6085208D00287FF464AF84F83D7085
:1034800084F83E5084F83C50CBE70220C9E70000A6
:10349000020010000000FFFF0400010024000020D3
:1034A0002DE9FF4F83B09A46DDE911979346044614
:1034B000DDF84080FFF746FD054694F83D002028E2
:1034C0007FD11923012240492046009501F0C2F91D
:1034D000002876D194F83C00012872D0012084F8AD
:1034E0003C0020680168C90703D1016841F001016F
:1034F00001602068016821F400610160212084F8E6
:103500003D00402084F83E0000262664C4F8248054
:10351000A4F82A90608D20852C48E062CDE90075E2
:1035200053465A462046049901F014F970B930E028
:103530002A463946204601F06BFA58B1206C04281F
:1035400004D12068016841F400710160012007B0D6
:10355000BDE8F08F606A216800780861606A401CED
:103560006062218D491E89B22185628D521E62855D
:1035700022685369DB435B070BD469B100781061A3
:10358000606A401C6062208D401E2085608D401E58
:103590006085208D0028CBD12A463946204601F08F
:1035A0002DF90028CAD154F83D0B016841F400718F
:1035B0000160202004F81E09E67766770020C6E740
:1035C000FFE70220C3E70000020010000000FFFF39
:1035D00010B586B00021009101910291039100681D
:1035E0000F4988421AD10F4CA06940F00800A06131
:1035F000A069694600F008000490C02000901220E5
:103600000190032003900848FFF7A6FBE06940F40F
:103610000010E061E06900F40010049006B010BDF5
:103620000054004000100240000C01400248816834
:10363000027811448160704718000020074810B5D7
:10364000016841F010010160032000F075F80F20BF
:1036500000F006F800F024F8002010BD0020024021
:1036600070B50D4D04464FF47A712878B1FBF0F037
:103670000A490968B1FBF0F000F0A4FB48B9102C2E
:1036800007D200222146501E00F036F800206C6060
:1036900070BD012070BD0000180000202400002033
:1036A0000C4808B5816941F001018161816901F02F
:1036B00001010091C16941F08051C161C06900F010
:1036C000805000900448416821F0E06141F00071B1
:1036D000416008BD0010024000000140002809DBE5
:1036E00000F01F02012191404009800000F1E0201C
:1036F000C0F8001170470000F0B40E4B1B680C4678
:10370000C3F30223C3F10705042D00D90425191DB5
:10371000072901D2002300E0DB1E012606FA05F18D
:10372000491E214099409E40761E16403143F0BC10
:1037300001F060BE0CED00E0064900F007020868E9
:103740004FF6FF03184040EA0220034A1043086086
:10375000704700000CED00E00000FA0510B50146CE
:103760000020234C012922D0022939D010291DD153
:1037700061682268D20119D51E48C1F38342C9038A
:10378000805C0AD561681B4AC1F34041921E515CBE
:10379000194AB2FBF1F1484301E018494843616816
:1037A000490203D440000321B0FBF1F010BD226AAE
:1037B000C2F30121012903D1920701D5C80310BD2D
:1037C000022905D1626A920702D549F6404010BD30
:1037D0000329FCD121688903F9D54FF2244010BD9B
:1037E00000F02AF96168C1F38131491C4900DBE727
:1037F000001002404070000800127A0000093D00ED
:103800002DE9F84305460078354CC00754D0E069EF
:103810000026C00008D4E06940F08050E061E06913
:10382000012600F0805000902E480168C90512D48E
:103830000168804641F480710160FFF783FB074611
:1038400005E000BFFFF77EFBC01B642823D8D8F833
:103850000000C005F6D5206A10F4407021D0A98878
:1038600001F4407181421CD0206A1F49012220F4DA
:1038700040700A6000220A602062C00711D0FFF782
:1038800061FB074641F2883808E000BFFFF75AFBAA
:10389000C11B414502D90320BDE8F883206A800797
:1038A000F4D5206A696820F44070084320621EB194
:1038B000E06920F08050E0612878800705D56068D5
:1038C000A96820F44040084360602878C00605D508
:1038D0006068E96820F48000084360600020DBE74E
:1038E0000010024000700040400442422DE9F047C1
:1038F0000F46050061D0434E306800F00700B84223
:1039000009D2306820F0070038433060306800F09A
:103910000700B84251D128683B4C810712D54007B7
:1039200003D5606840F4E06060602878000703D544
:10393000606840F4605060606068A96820F0F00042
:10394000084360602878C00728D06868012810D034
:103950002168022810D0890700292EDA616821F039
:10396000030101436160FFF7EDFA804641F28839B7
:103970000DE021688903EFE78901EDE7FFF7E2FA3F
:10398000A0EB0801494502D90320BDE8F087606833
:10399000696800F00C00B0EB810FEFD1306800F0E7
:1039A0000700B8420BD9306820F007003843306078
:1039B000306800F00700B84201D00120E5E7287820
:1039C000400705D56068E96820F4E060084360605E
:1039D0002878000706D56068296920F4605040EA1D
:1039E000C100606000F038F86168084AC1F3031153
:1039F000515CC8400649086006480068FFF730FE81
:103A00000020C2E700200240001002405070000871
:103A1000240000201C000020044805490068496873
:103A2000044AC1F30221515CC840704724000020C1
:103A300000100240607000080448054900684968A9
:103A4000044AC1F3C221515CC840704724000020E1
:103A500000100240607000080E4A51680E4801F0E4
:103A60000C03042B11D0082B0FD10C48C1F3834356
:103A7000C903C05C0AD55168084AC1F34041921E8F
:103A8000515C054A5043B0FBF1F07047044948438C
:103A9000704700000010024000127A002E700008EB
:103AA00000093D002DE9F84F040070D02078C04D8A
:103AB000C00749D06868C0F38100012807D0686852
:103AC000C0F38100022809D16868C00306D52868C0
:103AD000800339D560680028E7D035E06068B0F52C
:103AE000803F0BD010B1B0F5A02F11D0286820F482
:103AF00080302860286820F4802002E0286840F4A4
:103B000080302860606890B1FFF71CFA06460AE032
:103B1000286840F480202860F0E700BFFFF712FA21
:103B2000801B642873D828688003F7D50CE0FFF762
:103B300009FA064605E000BFFFF704FA801B642877
:103B4000F0D828688003F7D420789A4E80074FF089
:103B500001094FF0000839D5686810F00C0F07D044
:103B60006868C0F38100022809D16868C00306D4E0
:103B70002868800714D52069012808D110E0206941
:103B8000B0B1C6F80090FFF7DDF9074605E00AE19D
:103B9000FFF7D8F9C01B0228C4D828688007F7D5DA
:103BA0002868616920F0F80040EAC10028600DE053
:103BB000C6F80080FFF7C6F9074604E0FFF7C2F930
:103BC000C01B022823D828688007F7D42078000774
:103BD0002CD57948A169D9B1C0F80090FFF7B2F9A6
:103BE000074604E0FFF7AEF9C01B02280FD8686A49
:103BF0008007F7D571484FF4FA510068B0FBF1F037
:103C0000009000BF0098411E0091FAD20EE080E0C3
:103C1000C0F80080FFF796F9074604E0FFF792F935
:103C2000C01B022875D8686A8007F7D4207840073F
:103C300060D5E8690027C00008D4E86940F08050EA
:103C4000E861E869012700F0805000905C48016855
:103C5000C90513D40168834641F480710160FFF700
:103C600071F9824606E000BFFFF76CF9A0EB0A008D
:103C700064284ED8DBF80000C005F5D5E0680128BF
:103C80000AD008B1052813D0286A20F00100286264
:103C9000286A20F0040002E0286A40F0010028624F
:103CA000E06841F2883B98B1FFF74CF982460BE09F
:103CB000286A40F004002862EEE700BFFFF742F9EF
:103CC000A0EB0A0159455AD8286A8007F6D50CE0BE
:103CD000FFF738F9824605E0FFF734F9A0EB0A0157
:103CE00059454CD8286A8007F6D41FB1E86920F0FE
:103CF0008050E861E06988B36968C1F381010229F5
:103D000044D00228C6F8608004D0FFF71BF90446AF
:103D100038E034E0FFF716F9074604E0FFF712F940
:103D2000C01B02282BD828688001F7D4206AB0F580
:103D3000803F05D16868A16820F4003008436860BE
:103D4000D4E908010843696821F4741108436860E4
:103D5000C6F86090FFF7F6F8044606E025E000BFDD
:103D6000FFF7F0F8001B022809D828688001F7D572
:103D70001BE000BFFFF7E6F8001B022802D9032072
:103D8000BDE8F88F28688001F4D40EE00128F7D050
:103D90006868226A00F48031914204D1616A00F4BB
:103DA0007010884201D00120EAE70020E8E7000017
:103DB00000100240000042428004424224000020E1
:103DC0000070004010B5401EB0F1807F01D301208B
:103DD00010BD4FF0E02460610F21601701F00AFB75
:103DE0000020A06107202061002010BD70477047AF
:103DF00070B590F83C20012A26D0012480F83C4080
:103E0000022280F83D2003685A689D6822F07006FF
:103E10000A6832435A600D4B02689A4208D0B2F1E8
:103E2000804F05D00A4B9A4202D00A4B9A4204D1E5
:103E3000496825F080031943916080F83D400021D6
:103E400080F83C10084670BD022070BD002C014077
:103E5000000400400008004010B5040003D094F8AE
:103E60003D0010B107E0012010BD002084F83C00A7
:103E7000204600F01FF8022084F83D00211D206834
:103E800001F06EF8012084F8460084F83E0084F8C2
:103E90003F0084F8400084F8410084F8420084F830
:103EA000430084F8440084F8450084F83D00002075
:103EB00010BD000008B50068B0F1804F12D10A486B
:103EC000C16941F00101C161C069002200F0010037
:103ED000009011461C20FFF70FFCBDE808401C2095
:103EE000FFF7FCBB08BD00000010024070B504469F
:103EF00090F83C000025012817D0012684F83C608A
:103F0000022084F83D002068826822F0770222F4C3
:103F10007F4282600868502838D00DDC20284FD0BE
:103F200005DC90B3102811D14AE0022070BD302882
:103F300046D040280AD13BE060282FD070280DD011
:103F4000B0F5805F03D0B0F5005F12D0012584F892
:103F50003D60002084F83C00284670BDCB68D1E964
:103F60000121206801F038F82068816841F077016C
:103F700009E0CB68D1E90121206801F02DF8206823
:103F8000816841F480418160E1E719E0CA684968CD
:103F9000206801F033F85021206806E0CA684968BB
:103FA000206801F03CF86021206801F01FF8CEE79E
:103FB000CA684968206801F021F840212068F4E7C8
:103FC000226801461046F0E770472DE9F0410446AB
:103FD0000068C66805694FF00007A90713D5B10747
:103FE00011D5F91E016101202077206880698007C2
:103FF000204602D0FFF7E8FF04E000F07EF82046FC
:1040000000F07CF82777680716D5700714D521686B
:104010006FF004000861022020772068806910F4A6
:10402000407F204602D0FFF7CFFF04E000F065F8A4
:10403000204600F063F82777280715D5300713D5F9
:1040400021686FF008000861042020772068C069AB
:104050008007204602D0FFF7B7FF04E000F04DF8DC
:10406000204600F04BF82777E80616D5F00614D561
:1040700021686FF010000861082020772068C0696F
:1040800010F4407F204602D0FFF79EFF04E000F0CE
:1040900034F8204600F032F82777E80708D0F00718
:1040A00006D021686FF001000861204600F027F873
:1040B000280608D5300606D521686FF08000086113
:1040C0002046FFF793FE680608D5700606D52168DE
:1040D0006FF040000861204600F012F8A8060AD5EB
:1040E000B00608D521686FF0200008612046BDE8C1
:1040F000F041FFF77CBEBDE8F08170477047704724
:104100007047704770470000F8B5016804460868BA
:10411000CA684B6910F00F0F4FF0000559D003F03B
:10412000010602F49077374365D0C10705D0D10569
:1041300003D5616C41F001016164410705D5D907E0
:1041400003D0616C41F002016164810705D5D90794
:1041500003D0616C41F004016164010707D502F0EE
:104160002001314303D0616C41F008016164616C4E
:1041700000293AD0800604D5900602D5204600F0EA
:10418000F8FF20684069616CC0F38010090700D413
:1041900060B3204600F0C6FF20684069400621D584
:1041A0002068143050E8001F21F0400140E8001260
:1041B000002AF5D1E06BA8B16D494163E06BFEF7D1
:1041C0006DFD002811D0E06B416B01B0BDE8F040FF
:1041D000084783060FD593060DD52046BDE8F84065
:1041E00000F0C7BF2046FFF78DFFF8BD2046FFF760
:1041F00089FF6564F8BD266B2023012E7CD1C6069D
:104200007AD5D60678D508684868009048694FF096
:104210000206400640D5E16B086840680004000CC7
:10422000E8D0A28D8242E5D9E085886920282DD08A
:1042300020680C3050E8001F21F4807140E8001223
:10424000002AF5D12068143050E8001F21F0010148
:1042500040E80012002AF5D12068143050E8001F11
:1042600021F0400140E80012002AF5D184F84230E4
:10427000256320680C3050E8001F21F0100140E851
:104280000012002AF5D1E06BFEF7E4FC6663A08D16
:10429000E18D401A81B22AE0A08DE18D401A81B2F1
:1042A000E08D0028A6D00029A4D022680C3252E864
:1042B000000F20F4907042E80007002FF5D120682D
:1042C000143050E8002F22F0010240E80027002FB0
:1042D000F5D184F84230256320680C3050E8002F77
:1042E00022F0100240E80023002BF5D1666320463F
:1042F000FFF707FFF8BDFFE705062BD5150629D503
:1043000094F841002128F5D1A068B0F5805F01D173
:104310002069B0B1206A411C2162216800784860A0
:10432000E08C401E0004000CE084E3D12068C168EA
:1043300021F08001C1602068C16841F04001C16086
:10434000D8E7206A0088C0F308004860206A801C13
:104350002062E5E74006CDD55006CBD5CA68204699
:1043600022F04002CA6084F8413000F05BF9C1E7F6
:104370001551000870B5040004D094F841000025E0
:1043800010B106E0012070BD84F84050204600F0D6
:1043900023F8242084F841002068C16821F40051EA
:1043A000C160204600F046FF2068016921F4904179
:1043B00001612068416921F02A0141612068C168DA
:1043C00041F40051C1606564202084F8410084F804
:1043D00042006563002070BD30B585B000240094B4
:1043E00001940294039400681C49884234D11C480B
:1043F000816941F480418161816901F480410491C6
:10440000816941F0040181618069164D00F004006A
:1044100004904FF40070009002200190032003905C
:1044200069462846FEF798FC2815CDE90004694640
:1044300028460294FEF790FC002211462520FFF743
:104440005BF92520FFF74AF9002211462520FFF7E6
:1044500053F92520FFF742F905B030BD003801407F
:10446000001002400008014090F84230202B01D09B
:104470000220704721B11AB10023036300F036BF58
:10448000012070477CB500682B49884252D12B4CE3
:104490002B4E002561780A2908D00D2906D02078F6
:1044A000312804D23154401C207000E0257020785F
:1044B0000928355405D3082222A12148FCF7A5F884
:1044C000B0B12078072805D3042221A11C48FCF7AD
:1044D0009CF8D8B12078142800D9257002B017496B
:1044E000BDE8704016480122491C4838FFF7BCBFA0
:1044F00013486A4618A108300095FBF77FFF009823
:104500000728EAD8C0B2FEF7B5F8E6E701AA13A17A
:10451000301D0195FBF772FF11480199114A0844BB
:104520009042DAD210480090104B114A11A0FEF7C9
:10453000BBF8D2E77CBD0000003801400C00002031
:104540009C0100205345545F50494E3A0000000042
:104550004341503A00000000256400002566000039
:10456000323333C232337B040000404066668640FB
:10457000CDCC6C4050696E5F54755F4368696E685E
:10458000000000002DE9F843044690F841009846E9
:1045900016460D46202802D00220BDE8F88385B1DA
:1045A0007EB100206064212084F84100FEF7CAFC3F
:1045B000A6848146E684A0682027B0F5805F02D0FB
:1045C00003E00120E9E7206910B12E4600250EE046
:1045D00000260CE08021204600F0A3FEA8B9C6B159
:1045E00016F8010B21684860E08C401EE084E08CE6
:1045F0004B464FF00002CDF800800028EAD14FF082
:104600004001204600F08DFE40B184F84170032047
:10461000C3E735F8020BC0F30800E3E784F8417004
:104620000020BAE77047FEE701684A69D2435205A5
:104630000FD46FF480624A61002140F8301F2022BD
:1046400042738173026942F0040202610173012026
:1046500070470020704700002DE9F84F04460068BD
:1046600089460B9D01689846174641F480610160B8
:104670002068016841F48071016000954FF0011BD2
:104680000022594620460A9B00F0E4F84FF4007AD5
:1046900040B120680068C00501D5C4F840A00320DF
:1046A000BDE8F88F216809F0FE0008612B46284913
:1046B00020460A9A00F016F9F0BB2068416980692B
:1046C00000902A4620460A9900F0A2F940B1206CD9
:1046D00004283AD12068016841F40071016034E097
:1046E000FEB2B8F1010F09D02168380A08612A46E4
:1046F00020460A9900F08CF90028E8D1206806616C
:104700002A4620460A9900F083F90028DFD1206864
:10471000016841F4807101600095002259462046ED
:104720000A9B00F097F80028B3D1216809F0FF0038
:1047300040F00100086100E007E02B4604492046F4
:104740000A9A00F0CFF80028AAD00120A8E70000BC
:10475000020001002DE9F843044600680D46DDE93A
:10476000089701689846164641F4807101604B46EF
:1047700000224FF001112046009700F06BF848B17D
:1047800020680068C00502D54FF400702064032043
:10479000BDE8F883216805F0FE0008613B464A4603
:1047A0001549204600F09EF888B920684169806963
:1047B00000903A464946204600F02AF948B1206C5C
:1047C000042804D12068016841F4007101600120CF
:1047D000DEE7F5B2B8F1010F09D02168300A0861AF
:1047E0003A464946204600F013F90028E7D12068F0
:1047F00005610020CCE700000200010070B51646FC
:104800000D4604461EE02046FFF70EFF08B10120CA
:1048100070BD681C16D0FEF795FB801BA84200D81F
:1048200085B920684069C04340070BD5002044F893
:10483000300F20216173A073216941F020012161B3
:104840002073E4E720684069C0434007DBD40020C0
:1048500070BD00002DE9F047984617460D46044606
:10486000C1F30746DDF820902AE000BFB8F1FF3F12
:1048700026D0FEF767FBA0EB0901414502D8B8F14D
:10488000000F1DD12068012E16D0806925EA000096
:104890000004000C12D00020B84211D1002044F8CE
:1048A000300F20216173A073216941F02001216143
:1048B00020730120BDE8F0874069E7E70120EBE7BE
:1048C0002068012E0AD0806925EA00000004000C4F
:1048D00006D00020B842C9D00020EBE74069F3E7DA
:1048E0000120F7E72DE9F047984616460D460446A5
:1048F0004FF000094FF0200AC1F3074723E020687A
:104900004069C043400515D42068016841F4007136
:10491000016021686FF480604861C4F8309084F8C9
:104920003DA084F83E90216C41F00401216484F89C
:104930003C9021E0701C06D0FEF704FBA0EB0800C1
:10494000B04203D816B1012F1FD021E02068012FFB
:1049500015D0806925EA00000004000C18D000BFC3
:1049600044F8309F84F80DA084F80E90216941F03E
:104970002001216184F80C900120BDE8F087406996
:1049800025EA00000004000CEAD12068406901E03B
:104990002068806925EA00000004000CAFD1ECE734
:1049A0002DE9F041002590460E460446202728E0D8
:1049B0004069C043C0060CD454F8301B6FF010009F
:1049C000486144F810596777A577206A20622577F7
:1049D00014E0FEF7B7FAA0EB0800B04200D886B9A1
:1049E00020684069C04340060BD544F8305F6773C8
:1049F000A573206940F02000206125730120BDE8E7
:104A0000F08120684169C9434906D1D40020F6E706
:104A100070B516460D4604461EE02046FFF704FE1C
:104A200008B1012070BD681C16D0FEF78BFA801B00
:104A3000A84200D885B920684069C04300060BD55C
:104A4000002044F8300F20216173A073216941F0E8
:104A5000200121612073E4E720684069C04300061B
:104A6000DBD4002070BD000070B501600446027107
:104A70000A480D4600214180416051000223032273
:104A80002846FEF729FB08B1002070BD204600F043
:104A900032F8204600F03EF8012070BD00000020F2
:104AA00010B5022100F0F1F8C008800010BD000030
:104AB00010B500F009F80349B1F9021090FBF1F0CC
:104AC00000B210BD0000002010B5042100F0DDF898
:104AD00000B210BD10B500F00BF801F085FF0349DE
:104AE0004968BDE8104001F0C7BF00000000002089
:104AF000032100F0CAB810B54FF40042002100F0C5
:104B000050FCBDE810400120FEF714B90A4605210B
:104B100000F047BC70B50A4A05464FF48051118039
:104B20000A2050804007506043F69F142846FFF744
:104B3000EDFF21462846BDE8704000F003B80000B4
:104B4000000000200A46002100F02BBC3EB50024E6
:104B500011480094019402940E498460016004732A
:104B60000475012505614FF460214460C161FDF7C2
:104B70009FFE08B172B6FEE707200094CDE9015010
:104B800069460548FDF712FE002801D072B6FEE71F
:104B90003EBD0000002401408800002070B586B0B2
:104BA00000241C480094019402940394816941F00C
:104BB00010018161816901F010010491816941F066
:104BC00020018161816901F020010491816941F036
:104BD00004018161816901F004010491816941F05E
:104BE0000801816180690C4E00F008004FF4005507
:104BF0000490002229463046FEF79EF901200095D8
:104C0000CDE901040220039069463046FEF7A4F87E
:104C100006B070BD001002400010014010B586B013
:104C200000241748009401940294039404944FF0D4
:104C300080410594016041F61F41C0E9011440F232
:104C4000E731C0E9031480218161FFF705F908B15C
:104C500072B6FEE74FF48050009069460848FFF7AF
:104C600045F908B172B6FEE7049404A90448059416
:104C7000FFF7BEF8002801D072B6FEE706B010BDFF
:104C80000C010020FEE7FEE770471FB50A464FF40F
:104C90007A74022303A98DE81A000179006849009B
:104CA0000123FEF7CFFABDF80C0004B040BA10BDE6
:104CB00070B51A4A1A491B4C904229DA1A4A904296
:104CC00026D20868194D401C08603C2822D9D4E936
:104CD000001001F09DFE04D22946606801F01CFD21
:104CE00008E0D4E9001001F093FF04D2294660687F
:104CF00001F0C0FF6060216860680D4601F0BAFFF6
:104D00000B49884206D20B49884203DA656001E00C
:104D1000002008606068A06070BD00000AD7A33C56
:104D2000080000204C0000200AD7A3BCCDCCCC3D0D
:104D3000CDCC4CBECDCC4C3E0148806870470000C5
:104D40004C00002070B505461048854201DB104834
:104D500070BD1048854216DD0F4E0024284656F8D7
:104D6000341001F055FE0AD806EBC40081682846CD
:104D700001F04EFF03D806EBC400406870BD641C10
:104D8000E4B2142CEAD3002070BD000066668640B1
:104D90000000C84233335340646E000810B5054C20
:104DA000002121606160A160FFF7CCFF206060609E
:104DB000A06010BD4C00002070B5064612480D469C
:104DC0004069B0F5000F00DA1048114901F054FEB7
:104DD00004462946304601F04FFE214601F00AFD07
:104DE0000C4D294601F048FE0B4C0146606801F06D
:104DF00041FF6060A84201DD656070BD10F1FF4FAA
:104E0000FBD30020606070BD58000020CDCC0C406A
:104E1000000061450000C8424C00002010B5FFF7BB
:104E200091FF0149086010BD4C00002001488068D6
:104E3000704700007C0000200348002101604160B1
:104E400002498160704700007C0000200000C842D9
:104E500070B5184A5569B5F5000F00DA164D174AB6
:104E6000174C904201DC206809E001F005FE15496D
:104E700001F0C0FC0146206801F04EFC206029468C
:104E800001F0B8FC1049606001F0B4FC0F4901F07A
:104E9000F3FD0F4D0146284601F0ECFEA060A8424C
:104EA00001DDA56070BD10F1FF4FFBD30020A060B5
:104EB00070BD000058000020CDCC0C400AD7233C28
:104EC0007C000020000061450000FA430000A04182
:104ED0000000C8427047FEF7A9BB30B593B0282147
:104EE0006846FBF7DDFB14210AA8FBF7D9FB002578
:104EF00001200F9510951195010412958DE823005E
:104F000004904FF4E010CDE908100224079468469D
:104F1000FEF7C8FD08B172B6FEE70AA90F2081E8C6
:104F200031004FF48060CDE90D0502210AA8FEF79B
:104F3000DDFC08B172B6FEE74FF4004011900F940B
:104F40000FA8FEF75DFC002801D072B6FEE713B093
:104F500030BD70470148FFF738B800000C01002051
:104F6000F0B50268194B1A4C1A4D4FF08047984221
:104F700005D0B84203D0A04201D0A84203D122F00C
:104F800070064A683243984205D0B84203D0A04226
:104F900001D0A84203D122F44074CA6822434C696C
:104FA00022F08002224302608A68C2620A6882623A
:104FB000984201D109690163012141610169C90771
:104FC00003D0016921F001010161F0BD002C014015
:104FD000000400400008004010B5846842EA032243
:104FE00024F47F440A432243826010BD826822F089
:104FF00070020A4342F007018160704710B5036AEE
:10500000046A24F001040462846924F0F00444EA90
:10501000021423F00A020A438461026210BD10B533
:10502000036A046A24F010040462846923F0A00374
:1050300024F4704444EA023243EA011182610162BD
:1050400010BD0000014908607047000028000020E2
:105050002DE9F041264C2068FDF782FD642120688F
:10506000FDF7E0FC2068FDF71FFC05462068FDF712
:10507000D7FD284601F0B8FC1E4E314601F0FCFC7D
:105080001D4901F0B7FB05461C496060A0F5000012
:10509000884228D22946304601F0ECFD184F0646DA
:1050A0003946284601F0E8FC314601F0A3FB3946B9
:1050B00001F0A0FB01F004FB00F000FB7A04114BAF
:1050C00001F0D4F84FF060420F4B00F02BFE024687
:1050D0000B4600200D4900F0E1FE00F0F1FD0C4907
:1050E00001F0C8FD00E00020A060BDE8F0810000F4
:1050F000280000203333534000F07F455C8FD23FBF
:1051000000401C466597303FE1796B3F0000F03F5F
:105110003393884310B5406A0021C185C184FEF7EE
:10512000F1FF10BD01680C3151E8002F22F490729C
:1051300041E80023002BF5D10168143151E8002F1C
:1051400022F0010241E80023002BF5D1016B012977
:1051500009D101680C3151E8002F22F0100241E81A
:105160000023002BF5D1202180F84210002101639B
:10517000704708B590F84210222901D0022008BDDE
:1051800082684FF480539A4201D1016921B1816A4A
:105190009A421BD04AB10AE00268816A5268C2F39F
:1051A00008020A80816A891C08E0026972B10268FB
:1051B000526802F07F020A70816A491C8162C18DC7
:1051C000491E0904090CC18503D01BE0026852681E
:1051D000F1E70168CA6822F02002CA600168CA6863
:1051E00022F48072CA6001684A6922F001024A61B1
:1051F000202180F8421000214163026B012A03D074
:10520000FFF740F9002008BD016301680C3151E847
:10521000002F22F0100241E80023002BF5D1016895
:105220000A68D20602D50A6849680091818DFEF7A6
:1052300068FFE7E770B5044600680169E26821F499
:105240004051114301612169A06808436169084325
:105250002168CA6841F20C639A430243CA6020681D
:105260004169A26921F44071114341611E492068DE
:10527000884202D1FEF7E0FB01E0FEF7CDFB00EB38
:10528000C00101EB0012606864218000B2FBF0F302
:10529000B3FBF1F36FF018067343B2FBF0F5B2FB0A
:1052A000F0F605EB8305322303EB0515B5FBF1F5AD
:1052B000B6FBF1F605F0F00505EB0615B2FBF0F6CE
:1052C000B2FBF0F0B0FBF1F06FF01802504306EBC8
:1052D000800003EB0010B0FBF1F0216800F00F003C
:1052E0002844886070BD00000038014081628285DA
:1052F000C28500214164222180F84210016921B158
:105300000168CA6842F48072CA6001684A6942F062
:1053100001024A610068C16841F02001C1600020BB
:1053200070472DE9F843984617460D460446089EF7
:1053300024E0701C22D0FDF705FEA0EB0800B0426F
:105340001AD8CEB12068C168490717D5802D15D06D
:10535000402D13D00168C94309070FD40168002507
:10536000406800902046FFF7DDFE0820606484F866
:1053700040500120BDE8F8830320FBE72068006867
:1053800035EA000004D00020B842D2D00020F1E776
:105390000120F9E70148FEF7B7BE000054010020E4
:1053A000FEE71FB5130A8DF80C308DF80D204FF471
:1053B0007A74022303AA8DE81C0002790068540065
:1053C0000A4601232146FEF76BF81FBD490050EA4B
:1053D000C12018BF04204A0D18BF40F0010040F260
:1053E000FF72B2EB515F08BF40F00200012808BF16
:1053F000052070470907090E002804DB00F1E020B2
:1054000080F80014704700F00F0000F1E02080F8F1
:10541000141D70472DE9F0414F1E00EBC7010446F3
:10542000D1E9000115461E4637F006020DD02A4686
:10543000334600F01BFF7F1E04EBC703D3E90023B4
:1054400000F070FC37F00602F1D1022F25D0042FB6
:1054500013D0062F18BFBDE8F0812A46334600F06E
:1054600005FFD4E90A2300F05DFC2A46334600F02C
:10547000FDFED4E9082300F055FC2A46334600F02F
:10548000F5FED4E9062300F04DFC2A46334600F031
:10549000EDFED4E9042300F045FC2A46334600F033
:1054A000E5FED4E9022300F03DFC2A46334600F035
:1054B000DDFED4E90023BDE8F04100F033BC00007C
:1054C000002213461046014900F0E8BC0000F03FFE
:1054D000012201F07BBC002213461046114600F069
:1054E000DDBC40F2013200204FF0E04101F06EBC23
:1054F000024A0020110701F069BC000001FDFFFF16
:1055000010B50446D1E9000100F002F8206010BD9A
:10551000F8B504460D466A4600F06AF800987E30F9
:10552000009000281EDC002213462046294600F089
:105530000DFE17D0002140F608004FF0000006468F
:105540002046294600F0BCFB044640F6080006EA67
:1055500000014FF0000034F0004004BF0220FBF7D0
:10556000CEF829E00098FF2828DB002108464FF0FC
:10557000000000F44006002213462046294600F0B1
:1055800073FF8CBF002501250220FBF7B8F84FF010
:10559000FF4446B1002D0CBF4FF400004FF48000D3
:1055A000B04218BF084C042108464FF00000002DFF
:1055B00004BF84F00040F8BD2046F8BD20462946CF
:1055C000BDE8F84000F07CBBFFFF7F7F10B50446CC
:1055D0000A46D4E90003194600F036F8C4E9000190
:1055E00010BD30380A2801D20120704700207047D2
:1055F00010B5144600222260114A21F00043934264
:10560000A8BF10BD53EA000208BF10BDB3F5801F4C
:10561000A8BF226807DA362201F0D8FB6FF0350206
:1056200021F000432260DFF81CC06FF31E510CEB29
:1056300023531A4441F0FF5141F00051226010BD44
:105640000000F07F02FCFFFF2DE9F04106460C460A
:1056500040F2FF75174635EA14502BD0002213464E
:10566000304600F073FD25D03A463046214601F021
:10567000ADFB06460C4635EA145010D00022134606
:10568000304600F063FD15D10220FBF738F8FFF734
:105690002FFF0A46214662F31E01BDE8F081022079
:1056A000FBF72DF8FFF71DFF0A46214662F31E01A6
:1056B000BDE8F08130462146BDE8F0812DE9F04D8E
:1056C000C84A002490B0914205DA21F00043934289
:1056D00001D805D120B110B0BDE8F04DFFF7F8BEFC
:1056E000B1F5801F1BDA53EA000209D0002911DA54
:1056F0000120FBF704F810B0BDE8F04DFFF7EBBE5A
:105700000220FAF7FCFFFFF7DBFE10B081F000414A
:10571000BDE8F08D6FF03504362201F057FB04EB45
:105720002152C1F31308B049A2F2FF33414401F4FE
:10573000801282F07F6103EB225281F0405100928F
:1057400041EA08010022A94B00F0D0FE044608F10E
:105750000200A74EC0F313000D467E44032867D213
:10576000D6E90023204600F0F1FC1ED10098002865
:1057700002BFD6E9000110B0BDE8F08D00F022FDB7
:1057800007460C469B4A9C4B00F070FD06460D46B2
:105790009A4A9B4B3846214600F068FD10B03246CD
:1057A0002B46BDE8F04D00F0BDBA4FF05532954B99
:1057B0002046294600F05AFD0022934B00F08AFE55
:1057C00006460F4622462B461046194600F04EFD6F
:1057D00032463B4600F04AFD064600980F46F0B1BF
:1057E00000F0F0FC80468A46824A834B00F03EFD82
:1057F00032463B4600F06EFE22462B4600F076FE17
:1058000005460C467D4A7E4B4046514600F02EFD33
:1058100010B02A462346BDE8F04D00F067BE0B46A7
:1058200010B0324620462946BDE8F04D00F05EBE7D
:1058300000224FF08043204600F074FA02460B46E7
:105840002046294600F02AFB06460F46009800F045
:10585000B9FCCDE9040132463B461046394600F01A
:1058600005FD0C9069480C9A4044019009910B4643
:10587000104600F0FBFC8246024665488B46C8F1A4
:1058800051080B4608F5D72803217844FFF7C2FDDD
:1058900052465B4600F0EAFC0A905E480D91524683
:1058A0005B4604217844FFF7B5FD099B0C9A00F094
:1058B000DDFC844601980D9B40EA080860460A9A80
:1058C00000F030FA83460891B8F1000F4EDD4FF03A
:1058D000FF322046294601F079FA22462B4600F095
:1058E000C5FC804600988A4660B3DDE90401414A60
:1058F000414B00F0BBFC099100905A46404651468E
:10590000089B00F00FFA32463B4600F0AFFC099BC3
:10591000009A00F007FA4246534600F0DBFD2246AB
:105920002B4600F0E3FD04460D46DDE90401334A51
:10593000334B00F09BFC10B022462B46BDE8F04DE7
:1059400000F0D4BD5A464046089B00F0EBF93246C1
:105950003B4600F08BFC4246534600F0BBFD10B0C6
:1059600022462B46BDE8F04D00F0B4BD009840B390
:10597000DDE904011F4A204B00F078FC80468A468E
:105980005A4620462946089B00F0B0FD32463B4669
:1059900000F06CFC4246534600F0A8FD22462B4620
:1059A00000F0A4FD04460D46DDE90401134A144B42
:1059B00000F05CFC10B022462B46BDE8F04D00F034
:1059C00095BD0B465A462046294600F08FFD3246CB
:1059D0003B4600F04BFC10B022462B46BDE8F04D94
:1059E00000F078BD0000F07F645F09000000F03F28
:1059F00042190000763C7935EF39EA3D0000E0FEBF
:105A0000422EE63F5555D53F0000E03F86EBF9FFBB
:105A1000DA170000D8170000ADF50A7DFDF70EFE7D
:105A2000FFF75BFAFFF7BAF8FFF790F86F486E4997
:105A3000002401606E49C0E901144FF48041C0E9BF
:105A4000034144618461C4610462FDF781FA08B1D5
:105A500072B6FEE7FFF7E2F8644D66489C352860B1
:105A60004FF4E130C5E901040C20EC60C5E90440C5
:105A7000AC612846EC61FEF77DFC08B172B6FEE72A
:105A8000FCF7C2FD402259495B48FEF7EDFF5A483A
:105A9000FCF71CFE55483038FFF7D4FA56495348F6
:105AA0000122C91E9C30FEF7DFFC544CFCF728FE97
:105AB000FFF7CEFA207D28B1012805D002287DD03D
:105AC0004FA102E050A100E051A185A8FAF75AFDCC
:105AD0005248806800F0F4FD05468946A06800F051
